S01C000046696C653A20506173735F4661696C5F43616C632E61736D0A4C
S11310000A040C0A0A0A0409070814030004040366
S11310100606150109080703050519050505050652
S1131020040600000008070004061C090908070953
S1132000CF20001620ADCD1000CE10308E10362417
S11320102534C605162078162095306A0034C60586
S113202019EDC603162078162095C60319ED30A4C1
S1132030006A3034204BCE1030C6078E103624365A
S1132040A630341620A286FA1620B586FA1620B5D4
S113205086FA1620B586FA1620B586011620A286C1
S1132060FA1620B586FA1620B586FA1620B586FA31
S11320701620B53020C320FECE00053519ED0387A8
S1132080C7AD80250C3BE67F87E3801B811B812045
S1132090F01810313D8E00052404860020028601CC
S11320A03D00CE20A1A6E47B02585A013D86FF5A8A
S11220B0037A025A3DCD0FA00326FD4326F73DC8
S9030000FC
